{
  "_format": "hh-sol-artifact-1",
  "contractName": "Marketplace",
  "sourceName": "src/backend/contracts/Marketplace.sol",
  "abi": [
    {
      "anonymous": false,
      "inputs": [
        {
          "indexed": false,
          "internalType": "uint256",
          "name": "itemId",
          "type": "uint256"
        },
        {
          "indexed": true,
          "internalType": "address",
          "name": "nft",
          "type": "address"
        },
        {
          "indexed": false,
          "internalType": "uint256",
          "name": "tokenId",
          "type": "uint256"
        },
        {
          "indexed": true,
          "internalType": "address",
          "name": "seller",
          "type": "address"
        }
      ],
      "name": "certOffered",
      "type": "event"
    },
    {
      "anonymous": false,
      "inputs": [
        {
          "indexed": false,
          "internalType": "uint256",
          "name": "itemId",
          "type": "uint256"
        },
        {
          "indexed": false,
          "internalType": "address",
          "name": "nft",
          "type": "address"
        },
        {
          "indexed": false,
          "internalType": "uint256",
          "name": "tokenId",
          "type": "uint256"
        },
        {
          "indexed": true,
          "internalType": "address",
          "name": "seller",
          "type": "address"
        },
        {
          "indexed": true,
          "internalType": "address",
          "name": "buyer",
          "type": "address"
        },
        {
          "indexed": false,
          "internalType": "string",
          "name": "uuid",
          "type": "string"
        },
        {
          "indexed": true,
          "internalType": "string",
          "name": "uuid_indexed",
          "type": "string"
        }
      ],
      "name": "certSold",
      "type": "event"
    },
    {
      "inputs": [
        {
          "internalType": "uint256",
          "name": "",
          "type": "uint256"
        }
      ],
      "name": "certificates",
      "outputs": [
        {
          "internalType": "uint256",
          "name": "itemId",
          "type": "uint256"
        },
        {
          "internalType": "contract IERC721",
          "name": "nft",
          "type": "address"
        },
        {
          "internalType": "uint256",
          "name": "tokenId",
          "type": "uint256"
        },
        {
          "internalType": "address",
          "name": "seller",
          "type": "address"
        },
        {
          "internalType": "bool",
          "name": "isSent",
          "type": "bool"
        },
        {
          "internalType": "string",
          "name": "uuid",
          "type": "string"
        }
      ],
      "stateMutability": "view",
      "type": "function"
    },
    {
      "inputs": [],
      "name": "itemCount",
      "outputs": [
        {
          "internalType": "uint256",
          "name": "",
          "type": "uint256"
        }
      ],
      "stateMutability": "view",
      "type": "function"
    },
    {
      "inputs": [
        {
          "internalType": "contract IERC721",
          "name": "_nft",
          "type": "address"
        },
        {
          "internalType": "uint256",
          "name": "_tokenId",
          "type": "uint256"
        },
        {
          "internalType": "address",
          "name": "receiver",
          "type": "address"
        },
        {
          "internalType": "string",
          "name": "uuid",
          "type": "string"
        }
      ],
      "name": "makeCertificate",
      "outputs": [],
      "stateMutability": "nonpayable",
      "type": "function"
    },
    {
      "inputs": [
        {
          "internalType": "uint256",
          "name": "_itemId",
          "type": "uint256"
        },
        {
          "internalType": "address",
          "name": "receiver",
          "type": "address"
        },
        {
          "internalType": "string",
          "name": "uuid",
          "type": "string"
        }
      ],
      "name": "transferItem",
      "outputs": [],
      "stateMutability": "nonpayable",
      "type": "function"
    }
  ],
  "bytecode": "0x608060405234801561001057600080fd5b5060016000556108bb806100256000396000f3fe608060405234801561001057600080fd5b506004361061004c5760003560e01c8063663b3e22146100515780636bfb0d011461007f57806389f77c9414610096578063b4b92794146100ab575b600080fd5b61006461005f366004610590565b6100be565b60405161007696959493929190610601565b60405180910390f35b61008860015481565b604051908152602001610076565b6100a96100a4366004610709565b610193565b005b6100a96100b9366004610775565b610336565b60026020819052600091825260409091208054600182015492820154600383015460048401805493956001600160a01b0390811695939490831693600160a01b90930460ff16929190610110906107ce565b80601f016020809104026020016040519081016040528092919081815260200182805461013c906107ce565b80156101895780601f1061015e57610100808354040283529160200191610189565b820191906000526020600020905b81548152906001019060200180831161016c57829003601f168201915b5050505050905086565b61019b61049d565b600180549060006101ab83610809565b90915550506040516323b872dd60e01b8152336004820152306024820152604481018490526001600160a01b038516906323b872dd90606401600060405180830381600087803b1580156101fe57600080fd5b505af1158015610212573d6000803e3d6000fd5b50506040805160c081018252600180548083526001600160a01b03808b1660208086019182528587018c8152336060880190815260006080890181815260a08a018e815297825260028086529a90912089518155945197850180549887166001600160a01b031990991698909817909755905197830197909755955160038201805495511515600160a01b026001600160a81b031990961691909316179390931790555180519295509093506102cf9260048501929101906104f7565b505060015460408051918252602082018690523392506001600160a01b038716917f40692291153bc16a667cf7e017dbf9d72ff95661d95dc8f4437baefb307653e0910160405180910390a3610326838383610336565b6103306001600055565b50505050565b6000838152600260205260409020831580159061035557506001548411155b61039b5760405162461bcd60e51b81526020600482015260126024820152711a5d195b48191bd95cdb89dd08195e1a5cdd60721b60448201526064015b60405180910390fd5b60038101805460ff60a01b1916600160a01b179055600181015460028201546040516323b872dd60e01b81523060048201526001600160a01b03868116602483015260448201929092529116906323b872dd90606401600060405180830381600087803b15801561040b57600080fd5b505af115801561041f573d6000803e3d6000fd5b50505050816040516104319190610832565b60405190819003812060038301546001840154600285015492936001600160a01b0388811694938116937fcef445734bf6a0ca35a683cbd95d1c5372782c6e1517c70fe36ba6415a0ae6209361048f938c9390911691908a9061084e565b60405180910390a450505050565b600260005414156104f05760405162461bcd60e51b815260206004820152601f60248201527f5265656e7472616e637947756172643a207265656e7472616e742063616c6c006044820152606401610392565b6002600055565b828054610503906107ce565b90600052602060002090601f016020900481019282610525576000855561056b565b82601f1061053e57805160ff191683800117855561056b565b8280016001018555821561056b579182015b8281111561056b578251825591602001919060010190610550565b5061057792915061057b565b5090565b5b80821115610577576000815560010161057c565b6000602082840312156105a257600080fd5b5035919050565b60005b838110156105c45781810151838201526020016105ac565b838111156103305750506000910152565b600081518084526105ed8160208601602086016105a9565b601f01601f19169290920160200192915050565b8681526001600160a01b0386811660208301526040820186905284166060820152821515608082015260c060a08201819052600090610642908301846105d5565b98975050505050505050565b6001600160a01b038116811461066357600080fd5b50565b634e487b7160e01b600052604160045260246000fd5b600082601f83011261068d57600080fd5b813567ffffffffffffffff808211156106a8576106a8610666565b604051601f8301601f19908116603f011681019082821181831017156106d0576106d0610666565b816040528381528660208588010111156106e957600080fd5b836020870160208301376000602085830101528094505050505092915050565b6000806000806080858703121561071f57600080fd5b843561072a8161064e565b93506020850135925060408501356107418161064e565b9150606085013567ffffffffffffffff81111561075d57600080fd5b6107698782880161067c565b91505092959194509250565b60008060006060848603121561078a57600080fd5b83359250602084013561079c8161064e565b9150604084013567ffffffffffffffff8111156107b857600080fd5b6107c48682870161067c565b9150509250925092565b600181811c908216806107e257607f821691505b6020821081141561080357634e487b7160e01b600052602260045260246000fd5b50919050565b600060001982141561082b57634e487b7160e01b600052601160045260246000fd5b5060010190565b600082516108448184602087016105a9565b9190910192915050565b84815260018060a01b038416602082015282604082015260806060820152600061087b60808301846105d5565b969550505050505056fea264697066735822122093a7b7654cbd8d6bd27c68cd115ea5f5cd6ea1e177ef165b1b904faef1c380e964736f6c634300080c0033",
  "linkReferences": {},
  "deployedLinkReferences": {}
}