{
  "_format": "hh-sol-artifact-1",
  "contractName": "Marketplace",
  "sourceName": "src/backend/contracts/Marketplace.sol",
  "abi": [
    {
      "inputs": [
        {
          "internalType": "uint256",
          "name": "_feePercent",
          "type": "uint256"
        }
      ],
      "stateMutability": "nonpayable",
      "type": "constructor"
    },
    {
      "anonymous": false,
      "inputs": [
        {
          "indexed": false,
          "internalType": "uint256",
          "name": "itemId",
          "type": "uint256"
        },
        {
          "indexed": true,
          "internalType": "address",
          "name": "nft",
          "type": "address"
        },
        {
          "indexed": false,
          "internalType": "uint256",
          "name": "tokenId",
          "type": "uint256"
        },
        {
          "indexed": true,
          "internalType": "address",
          "name": "seller",
          "type": "address"
        }
      ],
      "name": "certOffered",
      "type": "event"
    },
    {
      "anonymous": false,
      "inputs": [
        {
          "indexed": false,
          "internalType": "uint256",
          "name": "itemId",
          "type": "uint256"
        },
        {
          "indexed": true,
          "internalType": "address",
          "name": "nft",
          "type": "address"
        },
        {
          "indexed": false,
          "internalType": "uint256",
          "name": "tokenId",
          "type": "uint256"
        },
        {
          "indexed": true,
          "internalType": "address",
          "name": "seller",
          "type": "address"
        },
        {
          "indexed": true,
          "internalType": "address",
          "name": "buyer",
          "type": "address"
        }
      ],
      "name": "certSold",
      "type": "event"
    },
    {
      "inputs": [
        {
          "internalType": "uint256",
          "name": "",
          "type": "uint256"
        }
      ],
      "name": "certificates",
      "outputs": [
        {
          "internalType": "uint256",
          "name": "itemId",
          "type": "uint256"
        },
        {
          "internalType": "contract IERC721",
          "name": "nft",
          "type": "address"
        },
        {
          "internalType": "uint256",
          "name": "tokenId",
          "type": "uint256"
        },
        {
          "internalType": "address",
          "name": "seller",
          "type": "address"
        },
        {
          "internalType": "bool",
          "name": "isSent",
          "type": "bool"
        }
      ],
      "stateMutability": "view",
      "type": "function"
    },
    {
      "inputs": [],
      "name": "feeAccount",
      "outputs": [
        {
          "internalType": "address payable",
          "name": "",
          "type": "address"
        }
      ],
      "stateMutability": "view",
      "type": "function"
    },
    {
      "inputs": [],
      "name": "feePercent",
      "outputs": [
        {
          "internalType": "uint256",
          "name": "",
          "type": "uint256"
        }
      ],
      "stateMutability": "view",
      "type": "function"
    },
    {
      "inputs": [],
      "name": "itemCount",
      "outputs": [
        {
          "internalType": "uint256",
          "name": "",
          "type": "uint256"
        }
      ],
      "stateMutability": "view",
      "type": "function"
    },
    {
      "inputs": [
        {
          "internalType": "uint256",
          "name": "",
          "type": "uint256"
        }
      ],
      "name": "items",
      "outputs": [
        {
          "internalType": "uint256",
          "name": "itemId",
          "type": "uint256"
        },
        {
          "internalType": "contract IERC721",
          "name": "nft",
          "type": "address"
        },
        {
          "internalType": "uint256",
          "name": "tokenId",
          "type": "uint256"
        },
        {
          "internalType": "uint256",
          "name": "price",
          "type": "uint256"
        },
        {
          "internalType": "address payable",
          "name": "seller",
          "type": "address"
        },
        {
          "internalType": "bool",
          "name": "sold",
          "type": "bool"
        }
      ],
      "stateMutability": "view",
      "type": "function"
    },
    {
      "inputs": [
        {
          "internalType": "contract IERC721",
          "name": "_nft",
          "type": "address"
        },
        {
          "internalType": "uint256",
          "name": "_tokenId",
          "type": "uint256"
        },
        {
          "internalType": "address",
          "name": "receiver",
          "type": "address"
        }
      ],
      "name": "makeCertificate",
      "outputs": [],
      "stateMutability": "nonpayable",
      "type": "function"
    },
    {
      "inputs": [
        {
          "internalType": "uint256",
          "name": "_itemId",
          "type": "uint256"
        },
        {
          "internalType": "address",
          "name": "receiver",
          "type": "address"
        }
      ],
      "name": "transferItem",
      "outputs": [],
      "stateMutability": "nonpayable",
      "type": "function"
    }
  ],
  "bytecode": "0x60c060405234801561001057600080fd5b506040516106d93803806106d983398101604081905261002f91610040565b60016000553360805260a052610059565b60006020828403121561005257600080fd5b5051919050565b60805160a05161065c61007d6000396000610166015260006087015261065c6000f3fe608060405234801561001057600080fd5b506004361061007d5760003560e01c80637fd6f15c1161005b5780637fd6f15c14610161578063a422910114610188578063b5bccca91461019d578063bfb231d2146101b057600080fd5b806365e17c9d14610082578063663b3e22146100c65780636bfb0d011461014a575b600080fd5b6100a97f000000000000000000000000000000000000000000000000000000000000000081565b6040516001600160a01b0390911681526020015b60405180910390f35b6101166100d436600461055a565b6003602081905260009182526040909120805460018201546002830154929093015490926001600160a01b03908116929190811690600160a01b900460ff1685565b604080519586526001600160a01b03948516602087015285019290925290911660608301521515608082015260a0016100bd565b61015360015481565b6040519081526020016100bd565b6101537f000000000000000000000000000000000000000000000000000000000000000081565b61019b61019636600461058b565b610242565b005b61019b6101ab3660046105bb565b61038e565b6102066101be36600461055a565b60026020819052600091825260409091208054600182015492820154600383015460049093015491936001600160a01b0390811693919290811690600160a01b900460ff1686565b604080519687526001600160a01b03958616602088015286019390935260608501919091529091166080830152151560a082015260c0016100bd565b6000828152600360205260409020821580159061026157506001548311155b6102a75760405162461bcd60e51b81526020600482015260126024820152711a5d195b48191bd95cdb89dd08195e1a5cdd60721b60448201526064015b60405180910390fd5b60038101805460ff60a01b1916600160a01b179055600181015460028201546040516323b872dd60e01b81523060048201526001600160a01b03858116602483015260448201929092529116906323b872dd90606401600060405180830381600087803b15801561031757600080fd5b505af115801561032b573d6000803e3d6000fd5b505050506003810154600182015460028301546040805187815260208101929092526001600160a01b038681169481169316917f7c18be39b91154fe60d87df56b4ffc76308070a7eb68d767ca2df2a0e3ad4068910160405180910390a4505050565b610396610500565b600180549060006103a6836105fd565b90915550506040516323b872dd60e01b8152336004820152306024820152604481018390526001600160a01b038416906323b872dd90606401600060405180830381600087803b1580156103f957600080fd5b505af115801561040d573d6000803e3d6000fd5b50506040805160a081018252600180548083526001600160a01b0389811660208086018281528688018c81523360608901818152600060808b018181529881526003808752908c90209a518b5593518a8a0180549189166001600160a01b0319909216919091179055915160028a0155905197909101805495511515600160a01b026001600160a81b03199096169790941696909617939093179091559154845190815290810188905291945092507f40692291153bc16a667cf7e017dbf9d72ff95661d95dc8f4437baefb307653e0910160405180910390a36104f18282610242565b6104fb6001600055565b505050565b600260005414156105535760405162461bcd60e51b815260206004820152601f60248201527f5265656e7472616e637947756172643a207265656e7472616e742063616c6c00604482015260640161029e565b6002600055565b60006020828403121561056c57600080fd5b5035919050565b6001600160a01b038116811461058857600080fd5b50565b6000806040838503121561059e57600080fd5b8235915060208301356105b081610573565b809150509250929050565b6000806000606084860312156105d057600080fd5b83356105db81610573565b92506020840135915060408401356105f281610573565b809150509250925092565b600060001982141561061f57634e487b7160e01b600052601160045260246000fd5b506001019056fea26469706673582212206473ae5328529eb60640845d3d40328523c02c3aadb12b6908bfe34096acc1d664736f6c634300080c0033",
  "linkReferences": {},
  "deployedLinkReferences": {}
}