{
  "_format": "hh-sol-artifact-1",
  "contractName": "Marketplace",
  "sourceName": "src/backend/contracts/Marketplace.sol",
  "abi": [
    {
      "inputs": [
        {
          "internalType": "uint256",
          "name": "_feePercent",
          "type": "uint256"
        }
      ],
      "stateMutability": "nonpayable",
      "type": "constructor"
    },
    {
      "anonymous": false,
      "inputs": [
        {
          "indexed": false,
          "internalType": "uint256",
          "name": "itemId",
          "type": "uint256"
        },
        {
          "indexed": true,
          "internalType": "address",
          "name": "nft",
          "type": "address"
        },
        {
          "indexed": false,
          "internalType": "uint256",
          "name": "tokenId",
          "type": "uint256"
        },
        {
          "indexed": false,
          "internalType": "uint256",
          "name": "price",
          "type": "uint256"
        },
        {
          "indexed": true,
          "internalType": "address",
          "name": "seller",
          "type": "address"
        },
        {
          "indexed": true,
          "internalType": "address",
          "name": "buyer",
          "type": "address"
        }
      ],
      "name": "Bought",
      "type": "event"
    },
    {
      "anonymous": false,
      "inputs": [
        {
          "indexed": false,
          "internalType": "uint256",
          "name": "itemId",
          "type": "uint256"
        },
        {
          "indexed": true,
          "internalType": "address",
          "name": "nft",
          "type": "address"
        },
        {
          "indexed": false,
          "internalType": "uint256",
          "name": "tokenId",
          "type": "uint256"
        },
        {
          "indexed": false,
          "internalType": "uint256",
          "name": "price",
          "type": "uint256"
        },
        {
          "indexed": true,
          "internalType": "address",
          "name": "seller",
          "type": "address"
        }
      ],
      "name": "Offered",
      "type": "event"
    },
    {
      "anonymous": false,
      "inputs": [
        {
          "indexed": false,
          "internalType": "uint256",
          "name": "itemId",
          "type": "uint256"
        },
        {
          "indexed": true,
          "internalType": "address",
          "name": "nft",
          "type": "address"
        },
        {
          "indexed": false,
          "internalType": "uint256",
          "name": "tokenId",
          "type": "uint256"
        },
        {
          "indexed": true,
          "internalType": "address",
          "name": "seller",
          "type": "address"
        }
      ],
      "name": "certOffered",
      "type": "event"
    },
    {
      "anonymous": false,
      "inputs": [
        {
          "indexed": false,
          "internalType": "uint256",
          "name": "itemId",
          "type": "uint256"
        },
        {
          "indexed": true,
          "internalType": "address",
          "name": "nft",
          "type": "address"
        },
        {
          "indexed": false,
          "internalType": "uint256",
          "name": "tokenId",
          "type": "uint256"
        },
        {
          "indexed": true,
          "internalType": "address",
          "name": "seller",
          "type": "address"
        },
        {
          "indexed": true,
          "internalType": "address",
          "name": "buyer",
          "type": "address"
        }
      ],
      "name": "certSold",
      "type": "event"
    },
    {
      "inputs": [
        {
          "internalType": "uint256",
          "name": "",
          "type": "uint256"
        }
      ],
      "name": "certificates",
      "outputs": [
        {
          "internalType": "uint256",
          "name": "itemId",
          "type": "uint256"
        },
        {
          "internalType": "contract IERC721",
          "name": "nft",
          "type": "address"
        },
        {
          "internalType": "uint256",
          "name": "tokenId",
          "type": "uint256"
        },
        {
          "internalType": "address",
          "name": "seller",
          "type": "address"
        },
        {
          "internalType": "bool",
          "name": "isSent",
          "type": "bool"
        }
      ],
      "stateMutability": "view",
      "type": "function"
    },
    {
      "inputs": [],
      "name": "feeAccount",
      "outputs": [
        {
          "internalType": "address payable",
          "name": "",
          "type": "address"
        }
      ],
      "stateMutability": "view",
      "type": "function"
    },
    {
      "inputs": [],
      "name": "feePercent",
      "outputs": [
        {
          "internalType": "uint256",
          "name": "",
          "type": "uint256"
        }
      ],
      "stateMutability": "view",
      "type": "function"
    },
    {
      "inputs": [],
      "name": "itemCount",
      "outputs": [
        {
          "internalType": "uint256",
          "name": "",
          "type": "uint256"
        }
      ],
      "stateMutability": "view",
      "type": "function"
    },
    {
      "inputs": [
        {
          "internalType": "uint256",
          "name": "",
          "type": "uint256"
        }
      ],
      "name": "items",
      "outputs": [
        {
          "internalType": "uint256",
          "name": "itemId",
          "type": "uint256"
        },
        {
          "internalType": "contract IERC721",
          "name": "nft",
          "type": "address"
        },
        {
          "internalType": "uint256",
          "name": "tokenId",
          "type": "uint256"
        },
        {
          "internalType": "uint256",
          "name": "price",
          "type": "uint256"
        },
        {
          "internalType": "address payable",
          "name": "seller",
          "type": "address"
        },
        {
          "internalType": "bool",
          "name": "sold",
          "type": "bool"
        }
      ],
      "stateMutability": "view",
      "type": "function"
    },
    {
      "inputs": [
        {
          "internalType": "contract IERC721",
          "name": "_nft",
          "type": "address"
        },
        {
          "internalType": "uint256",
          "name": "_tokenId",
          "type": "uint256"
        },
        {
          "internalType": "address",
          "name": "receiver",
          "type": "address"
        }
      ],
      "name": "makeCertificate",
      "outputs": [],
      "stateMutability": "nonpayable",
      "type": "function"
    },
    {
      "inputs": [
        {
          "internalType": "contract IERC721",
          "name": "_nft",
          "type": "address"
        },
        {
          "internalType": "uint256",
          "name": "_tokenId",
          "type": "uint256"
        },
        {
          "internalType": "uint256",
          "name": "_price",
          "type": "uint256"
        }
      ],
      "name": "makeItem",
      "outputs": [],
      "stateMutability": "nonpayable",
      "type": "function"
    },
    {
      "inputs": [
        {
          "internalType": "uint256",
          "name": "_itemId",
          "type": "uint256"
        },
        {
          "internalType": "address",
          "name": "receiver",
          "type": "address"
        }
      ],
      "name": "transferItem",
      "outputs": [],
      "stateMutability": "nonpayable",
      "type": "function"
    }
  ],
  "bytecode": "0x60c060405234801561001057600080fd5b506040516108f53803806108f583398101604081905261002f91610040565b60016000553360805260a052610059565b60006020828403121561005257600080fd5b5051919050565b60805160a05161087861007d600039600061017101526000609201526108786000f3fe608060405234801561001057600080fd5b50600436106100885760003560e01c8063a42291011161005b578063a422910114610193578063b5bccca9146101a8578063bfb231d2146101bb578063fa00afc71461024d57600080fd5b806365e17c9d1461008d578063663b3e22146100d15780636bfb0d01146101555780637fd6f15c1461016c575b600080fd5b6100b47f000000000000000000000000000000000000000000000000000000000000000081565b6040516001600160a01b0390911681526020015b60405180910390f35b6101216100df366004610741565b6003602081905260009182526040909120805460018201546002830154929093015490926001600160a01b03908116929190811690600160a01b900460ff1685565b604080519586526001600160a01b03948516602087015285019290925290911660608301521515608082015260a0016100c8565b61015e60015481565b6040519081526020016100c8565b61015e7f000000000000000000000000000000000000000000000000000000000000000081565b6101a66101a1366004610772565b610260565b005b6101a66101b63660046107a2565b6103ac565b6102116101c9366004610741565b60026020819052600091825260409091208054600182015492820154600383015460049093015491936001600160a01b0390811693919290811690600160a01b900460ff1686565b604080519687526001600160a01b03958616602088015286019390935260608501919091529091166080830152151560a082015260c0016100c8565b6101a661025b3660046107e4565b61051e565b6000828152600360205260409020821580159061027f57506001548311155b6102c55760405162461bcd60e51b81526020600482015260126024820152711a5d195b48191bd95cdb89dd08195e1a5cdd60721b60448201526064015b60405180910390fd5b60038101805460ff60a01b1916600160a01b179055600181015460028201546040516323b872dd60e01b81523060048201526001600160a01b03858116602483015260448201929092529116906323b872dd90606401600060405180830381600087803b15801561033557600080fd5b505af1158015610349573d6000803e3d6000fd5b505050506003810154600182015460028301546040805187815260208101929092526001600160a01b038681169481169316917f7c18be39b91154fe60d87df56b4ffc76308070a7eb68d767ca2df2a0e3ad4068910160405180910390a4505050565b6103b46106e7565b600180549060006103c483610819565b90915550506040516323b872dd60e01b8152336004820152306024820152604481018390526001600160a01b038416906323b872dd90606401600060405180830381600087803b15801561041757600080fd5b505af115801561042b573d6000803e3d6000fd5b50506040805160a081018252600180548083526001600160a01b0389811660208086018281528688018c81523360608901818152600060808b018181529881526003808752908c90209a518b5593518a8a0180549189166001600160a01b0319909216919091179055915160028a0155905197909101805495511515600160a01b026001600160a81b03199096169790941696909617939093179091559154845190815290810188905291945092507f40692291153bc16a667cf7e017dbf9d72ff95661d95dc8f4437baefb307653e0910160405180910390a361050f8282610260565b6105196001600055565b505050565b6105266106e7565b600081116105765760405162461bcd60e51b815260206004820152601f60248201527f5072696365206d7573742062652067726561746572207468616e207a65726f0060448201526064016102bc565b6001805490600061058683610819565b90915550506040516323b872dd60e01b8152336004820152306024820152604481018390526001600160a01b038416906323b872dd90606401600060405180830381600087803b1580156105d957600080fd5b505af11580156105ed573d6000803e3d6000fd5b50506040805160c081018252600180548083526001600160a01b0389811660208086018281528688018c815260608089018d81523360808b01818152600060a08d018181529a81526002808952908e90209c518d5595518c8c018054918b166001600160a01b03199092169190911790559351948b01949094555160038a015590516004909801805496511515600160a01b026001600160a81b031990971698909516979097179490941790925592548551908152908101899052938401879052945092507f655a0cf9c8db81512be9a76dc1c5ae5380b8816ce6ad659cd61b715e2999d59a910160405180910390a36105196001600055565b6002600054141561073a5760405162461bcd60e51b815260206004820152601f60248201527f5265656e7472616e637947756172643a207265656e7472616e742063616c6c0060448201526064016102bc565b6002600055565b60006020828403121561075357600080fd5b5035919050565b6001600160a01b038116811461076f57600080fd5b50565b6000806040838503121561078557600080fd5b8235915060208301356107978161075a565b809150509250929050565b6000806000606084860312156107b757600080fd5b83356107c28161075a565b92506020840135915060408401356107d98161075a565b809150509250925092565b6000806000606084860312156107f957600080fd5b83356108048161075a565b95602085013595506040909401359392505050565b600060001982141561083b57634e487b7160e01b600052601160045260246000fd5b506001019056fea2646970667358221220a9e79d0851aba113896242858a440003d0fdad2e8a34c8c21e8ca1dd6b9948c964736f6c634300080c0033",
  "linkReferences": {},
  "deployedLinkReferences": {}
}